{
  "contractName": "ScorchablePayments",
  "abi": [
    {
      "constant": true,
      "inputs": [
        {
          "name": "",
          "type": "uint64"
        }
      ],
      "name": "payments",
      "outputs": [
        {
          "name": "payer",
          "type": "address"
        },
        {
          "name": "payee",
          "type": "address"
        },
        {
          "name": "amount",
          "type": "uint256"
        },
        {
          "name": "payeeBondAmount",
          "type": "uint256"
        },
        {
          "name": "payerInactionTimeout",
          "type": "uint256"
        },
        {
          "name": "listIndex",
          "type": "uint256"
        },
        {
          "name": "payeeBondPaid",
          "type": "bool"
        },
        {
          "name": "isEthPayment",
          "type": "bool"
        }
      ],
      "payable": false,
      "stateMutability": "view",
      "type": "function"
    },
    {
      "constant": true,
      "inputs": [],
      "name": "scorchAddress",
      "outputs": [
        {
          "name": "",
          "type": "address"
        }
      ],
      "payable": false,
      "stateMutability": "view",
      "type": "function"
    },
    {
      "constant": true,
      "inputs": [
        {
          "name": "",
          "type": "uint256"
        }
      ],
      "name": "paymentIds",
      "outputs": [
        {
          "name": "",
          "type": "uint64"
        }
      ],
      "payable": false,
      "stateMutability": "view",
      "type": "function"
    },
    {
      "constant": true,
      "inputs": [],
      "name": "currentId",
      "outputs": [
        {
          "name": "",
          "type": "uint64"
        }
      ],
      "payable": false,
      "stateMutability": "view",
      "type": "function"
    },
    {
      "constant": false,
      "inputs": [
        {
          "name": "payee",
          "type": "address"
        },
        {
          "name": "amountToPay",
          "type": "uint256"
        },
        {
          "name": "payeeBondAmount",
          "type": "uint256"
        },
        {
          "name": "payerInactionTimeout",
          "type": "uint256"
        },
        {
          "name": "isEthPayment",
          "type": "bool"
        }
      ],
      "name": "createPayment",
      "outputs": [],
      "payable": true,
      "stateMutability": "payable",
      "type": "function"
    },
    {
      "constant": false,
      "inputs": [
        {
          "name": "paymentId",
          "type": "uint64"
        }
      ],
      "name": "cancelPayment",
      "outputs": [],
      "payable": false,
      "stateMutability": "nonpayable",
      "type": "function"
    },
    {
      "constant": false,
      "inputs": [
        {
          "name": "paymentId",
          "type": "uint64"
        }
      ],
      "name": "payBond",
      "outputs": [],
      "payable": true,
      "stateMutability": "payable",
      "type": "function"
    },
    {
      "constant": false,
      "inputs": [
        {
          "name": "paymentId",
          "type": "uint64"
        },
        {
          "name": "amount",
          "type": "uint256"
        }
      ],
      "name": "returnTokensToSender",
      "outputs": [],
      "payable": false,
      "stateMutability": "nonpayable",
      "type": "function"
    },
    {
      "constant": false,
      "inputs": [
        {
          "name": "paymentId",
          "type": "uint64"
        },
        {
          "name": "amount",
          "type": "uint256"
        }
      ],
      "name": "topUp",
      "outputs": [],
      "payable": true,
      "stateMutability": "payable",
      "type": "function"
    },
    {
      "constant": false,
      "inputs": [
        {
          "name": "paymentId",
          "type": "uint64"
        },
        {
          "name": "amount",
          "type": "uint256"
        }
      ],
      "name": "releasePayment",
      "outputs": [],
      "payable": false,
      "stateMutability": "nonpayable",
      "type": "function"
    },
    {
      "constant": false,
      "inputs": [
        {
          "name": "paymentId",
          "type": "uint64"
        },
        {
          "name": "amountToScorch",
          "type": "uint256"
        }
      ],
      "name": "scorchPayment",
      "outputs": [],
      "payable": false,
      "stateMutability": "nonpayable",
      "type": "function"
    },
    {
      "constant": false,
      "inputs": [
        {
          "name": "paymentId",
          "type": "uint64"
        }
      ],
      "name": "claimTimedOutPayment",
      "outputs": [],
      "payable": false,
      "stateMutability": "nonpayable",
      "type": "function"
    },
    {
      "constant": true,
      "inputs": [],
      "name": "getNumPayments",
      "outputs": [
        {
          "name": "length",
          "type": "uint256"
        }
      ],
      "payable": false,
      "stateMutability": "view",
      "type": "function"
    },
    {
      "constant": true,
      "inputs": [
        {
          "name": "account",
          "type": "address"
        }
      ],
      "name": "getPaymentsForAccount",
      "outputs": [
        {
          "name": "",
          "type": "uint64[]"
        },
        {
          "name": "",
          "type": "uint64[]"
        }
      ],
      "payable": false,
      "stateMutability": "view",
      "type": "function"
    },
    {
      "constant": false,
      "inputs": [
        {
          "name": "paymentId",
          "type": "uint64"
        }
      ],
      "name": "extendInactionTimeout",
      "outputs": [],
      "payable": false,
      "stateMutability": "nonpayable",
      "type": "function"
    }
  ],
  "bytecode": "0x608060405260008054600160a060020a031990811673c4375b7de8af5a38a93548eb8453a498222c4ff21791829055600180548216600160a060020a03939093169290921782556003805467ffffffffffffffff191690921790915560058054909116905534801561007057600080fd5b50611318806100806000396000f3006080604052600436106100da5763ffffffff7c010000000000000000000000000000000000000000000000000000000060003504166316bf465781146100df578063183f9bfe1461010657806353d6b2b514610179578063626c2e93146101a057806367dfe3e8146101c55780636ad6d578146101ea5780637bb9a117146101ff5780638ce5ae91146102215780639092580c146102395780639ba6737c1461026a578063a6264a161461029f578063af43fda114610359578063caa1734e1461037b578063e00dd1611461039d578063e9e32166146103b2575b600080fd5b3480156100eb57600080fd5b506100f46103d4565b60408051918252519081900360200190f35b34801561011257600080fd5b5061012867ffffffffffffffff600435166103db565b60408051600160a060020a03998a168152979098166020880152868801959095526060860193909352608085019190915260a0840152151560c0830152151560e08201529051908190036101000190f35b34801561018557600080fd5b5061019e67ffffffffffffffff60043516602435610431565b005b3480156101ac57600080fd5b5061019e67ffffffffffffffff6004351660243561050a565b3480156101d157600080fd5b5061019e67ffffffffffffffff60043516602435610629565b61019e67ffffffffffffffff600435166106fc565b34801561020b57600080fd5b5061019e67ffffffffffffffff600435166107c5565b61019e67ffffffffffffffff60043516602435610874565b34801561024557600080fd5b5061024e6108f9565b60408051600160a060020a039092168252519081900360200190f35b34801561027657600080fd5b50610282600435610908565b6040805167ffffffffffffffff9092168252519081900360200190f35b3480156102ab57600080fd5b506102c0600160a060020a0360043516610944565b604051808060200180602001838103835285818151815260200191508051906020019060200280838360005b838110156103045781810151838201526020016102ec565b50505050905001838103825284818151815260200191508051906020019060200280838360005b8381101561034357818101518382015260200161032b565b5050505090500194505050505060405180910390f35b61019e600160a060020a03600435166024356044356064356084351515610cc2565b34801561038757600080fd5b5061019e67ffffffffffffffff60043516610ea4565b3480156103a957600080fd5b50610282610f0c565b3480156103be57600080fd5b5061019e67ffffffffffffffff60043516610f1c565b6002545b90565b60046020819052600091825260409091208054600182015460028301546003840154948401546005850154600690950154600160a060020a03948516969390941694919390919060ff8082169161010090041688565b67ffffffffffffffff82166000908152600460205260409020548290600160a060020a0316331461046157600080fd5b67ffffffffffffffff831660009081526004602052604090206002015461048e908363ffffffff610fb016565b67ffffffffffffffff8416600090815260046020526040902060028101919091556005546006909101546104d9913091600160a060020a03909116908590610100900460ff16610fc7565b67ffffffffffffffff83166000908152600460205260409020600201541515610505576105058361103d565b505050565b67ffffffffffffffff82166000908152600460205260409020600101548290600160a060020a0316331461053d57600080fd5b67ffffffffffffffff831660009081526004602052604090206002015482111561056657600080fd5b67ffffffffffffffff8316600090815260046020526040902080546006909101546105a8913091600160a060020a03909116908590610100900460ff16610fc7565b67ffffffffffffffff83166000908152600460205260409020600201548214156105da576105d58361103d565b610505565b67ffffffffffffffff8316600090815260046020526040902060020154610607908363ffffffff610fb016565b67ffffffffffffffff8416600090815260046020526040902060020155505050565b67ffffffffffffffff82166000908152600460205260409020548290600160a060020a0316331461065957600080fd5b67ffffffffffffffff831660009081526004602052604090206002015482111561068257600080fd5b67ffffffffffffffff83166000908152600460205260409020600201546106af908363ffffffff610fb016565b67ffffffffffffffff84166000908152600460205260409020600281019190915560018101546006909101546104d9913091600160a060020a03909116908590610100900460ff16610fc7565b67ffffffffffffffff811660009081526004602052604090206006015460ff161561072657600080fd5b67ffffffffffffffff811660009081526004602052604090206003810154600690910154610760913391309190610100900460ff16610fc7565b67ffffffffffffffff8116600090815260046020526040902060038101546002909101546107939163ffffffff6111be16565b67ffffffffffffffff90911660009081526004602052604090206002810191909155600601805460ff19166001179055565b67ffffffffffffffff81166000908152600460205260409020600101548190600160a060020a031633146107f857600080fd5b67ffffffffffffffff821660009081526004602081905260409091200154421161082157600080fd5b67ffffffffffffffff8216600090815260046020526040902060018101546002820154600690920154610867923092600160a060020a031691610100900460ff16610fc7565b6108708261103d565b5050565b67ffffffffffffffff82166000908152600460205260409020600601546108a890339030908490610100900460ff16610fc7565b67ffffffffffffffff82166000908152600460205260409020600201546108d5908263ffffffff6111be16565b67ffffffffffffffff90921660009081526004602052604090206002019190915550565b600554600160a060020a031681565b600280548290811061091657fe5b9060005260206000209060049182820401919006600802915054906101000a900467ffffffffffffffff1681565b6060806060806000806000606080600080600280549050604051908082528060200260200182016040528015610984578160200160208202803883390190505b50600254604080518281526020808402820101909152919a5080156109b3578160200160208202803883390190505b5097506000965060009550600094505b600254851015610b92578b600160a060020a0316600460006002888154811015156109ea57fe5b6000918252602080832060048304015460039092166008026101000a90910467ffffffffffffffff168352820192909252604001902054600160a060020a03161415610aa2576002805486908110610a3e57fe5b90600052602060002090600491828204019190066008029054906101000a900467ffffffffffffffff168988815181101515610a7657fe5b67ffffffffffffffff909216602092830290910190910152610a9f87600163ffffffff6111be16565b96505b8b600160a060020a031660046000600288815481101515610abf57fe5b6000918252602080832060048304015460039092166008026101000a90910467ffffffffffffffff168352820192909252604001902060010154600160a060020a03161415610b7a576002805486908110610b1657fe5b90600052602060002090600491828204019190066008029054906101000a900467ffffffffffffffff168887815181101515610b4e57fe5b67ffffffffffffffff909216602092830290910190910152610b7786600163ffffffff6111be16565b95505b610b8b85600163ffffffff6111be16565b94506109c3565b86604051908082528060200260200182016040528015610bbc578160200160208202803883390190505b50935085604051908082528060200260200182016040528015610be9578160200160208202803883390190505b509250600091505b86821015610c4f578882815181101515610c0757fe5b906020019060200201518483815181101515610c1f57fe5b67ffffffffffffffff909216602092830290910190910152610c4882600163ffffffff6111be16565b9150610bf1565b5060005b85811015610cb1578781815181101515610c6957fe5b906020019060200201518382815181101515610c8157fe5b67ffffffffffffffff909216602092830290910190910152610caa81600163ffffffff6111be16565b9050610c53565b50919a909950975050505050505050565b610cce33308684610fc7565b610ce14262f92b8063ffffffff6111be16565b8210610cec57600080fd5b604080516101008181018352338252600160a060020a0388166020830152918101869052606081018590526080810184905260038054600280546001818101808455600093909352600482047f405787fa12a823e0f2b7631cc41b3ba8828b3321ca811111fa75cd3aa3bb5ace0180546008939096169290920290960a67ffffffffffffffff938416810293021990931691909117909155909160a0830191610d9a9163ffffffff610fb016565b815284156020808301919091528315156040928301526003805467ffffffffffffffff908116600090815260048085529085902086518154600160a060020a0391821673ffffffffffffffffffffffffffffffffffffffff199182161783559588015160018381018054929093169190971617905594860151600286015560608601518584015560808601519085015560a0850151600585015560c08501516006909401805460e09096015115156101000261ff001995151560ff199097169690961794909416949094179092559054610e7b92169063ffffffff6111d716565b6003805467ffffffffffffffff191667ffffffffffffffff929092169190911790555050505050565b67ffffffffffffffff81166000908152600460205260409020548190600160a060020a03163314610ed457600080fd5b610ee742622e248063ffffffff6111be16565b67ffffffffffffffff9092166000908152600460208190526040909120019190915550565b60035467ffffffffffffffff1681565b67ffffffffffffffff81166000908152600460205260409020548190600160a060020a03163314610f4c57600080fd5b67ffffffffffffffff821660009081526004602052604090206006015460ff1615610f7657600080fd5b67ffffffffffffffff821660009081526004602052604090206002810154600690910154610867913091339190610100900460ff16610fc7565b60008083831115610fc057600080fd5b5050900390565b801561102c57600160a060020a038316301415610fef57348214610fea57600080fd5b611027565b604051600160a060020a0384169083156108fc029084906000818181858888f19350505050158015611025573d6000803e3d6000fd5b505b611037565b6110378484846111f6565b50505050565b67ffffffffffffffff81166000908152600460205260409020600501546002805461106f90600163ffffffff610fb016565b8154811061107957fe5b90600052602060002090600491828204019190066008029054906101000a900467ffffffffffffffff166002828154811015156110b257fe5b90600052602060002090600491828204019190066008026101000a81548167ffffffffffffffff021916908367ffffffffffffffff160217905550806004600060028481548110151561110157fe5b6000918252602080832060048084049091015467ffffffffffffffff60086003958616026101000a9091048116865285830196909652604094850184206005908101979097559488168352849052918120805473ffffffffffffffffffffffffffffffffffffffff199081168255600180830180549092169091556002808301849055938201839055938101829055938401556006909201805461ffff1916905590546111b39163ffffffff610fb016565b6105056002826112a4565b6000828201838110156111d057600080fd5b9392505050565b600082820167ffffffffffffffff80851690821610156111d057600080fd5b600154604080517f23b872dd000000000000000000000000000000000000000000000000000000008152600160a060020a038681166004830152858116602483015260448201859052915191909216916323b872dd9160648083019260209291908290030181600087803b15801561126d57600080fd5b505af1158015611281573d6000803e3d6000fd5b505050506040513d602081101561129757600080fd5b5051151561050557600080fd5b81548183558181111561050557600083815260209020610505916103d89160046003928301819004820192860104015b808211156112e857600081556001016112d4565b50905600a165627a7a723058204762e330e4a109c7c9012374e72be167e17c12481dc66dec88035f97d38572e40029",
  "source": "pragma solidity ^0.4.24;\n\n\nimport \"./SafeMath.sol\";\nimport \"./DaiInterface.sol\";\n\n\ncontract ScorchablePayments is DaiTransferrer {\n\n    using SafeMath for uint256;\n    using SafeMath64 for uint64;\n\n    struct Payment {\n        address payer;\n        address payee;\n        uint amount;\n        uint payeeBondAmount;\n        uint payerInactionTimeout;\n        uint listIndex;\n        bool payeeBondPaid;\n        bool isEthPayment;\n    }\n\n    uint64[] public paymentIds;\n    uint64 public currentId = 1;\n    mapping(uint64 => Payment) public payments;\n    address public scorchAddress = 0x0;\n\n    modifier onlyPayer(uint64 paymentId) {\n        require(msg.sender == payments[paymentId].payer);\n        _;\n    }\n\n    modifier onlyPayee(uint64 paymentId) {\n        require(msg.sender == payments[paymentId].payee);\n        _;\n    }\n\n    function createPayment(\n        address payee,\n        uint amountToPay,\n        uint payeeBondAmount,\n        uint payerInactionTimeout,\n        bool isEthPayment\n    )\n    external\n    payable\n    {\n        transferTokens(msg.sender, address(this), amountToPay, isEthPayment);\n        require(payerInactionTimeout < now.add(27 weeks));\n        payments[currentId] = Payment(\n            msg.sender,\n            payee,\n            amountToPay,\n            payeeBondAmount,\n            payerInactionTimeout,\n            paymentIds.push(currentId).sub(1),\n            payeeBondAmount == 0,\n            isEthPayment\n        );\n        currentId = currentId.add(1);\n    }\n\n    function cancelPayment(uint64 paymentId) external onlyPayer(paymentId) {\n        require(payments[paymentId].payeeBondPaid == false);\n        transferTokens(\n            address(this),\n            msg.sender,\n            payments[paymentId].amount,\n            payments[paymentId].isEthPayment\n        );\n        _deletePayment(paymentId);\n    }\n\n    function payBond(\n        uint64 paymentId\n    )\n    external\n    payable\n    {\n        require(payments[paymentId].payeeBondPaid == false);\n        transferTokens(\n            msg.sender,\n            address(this),\n            payments[paymentId].payeeBondAmount,\n            payments[paymentId].isEthPayment\n        );\n        payments[paymentId].amount = payments[paymentId].amount.add(payments[paymentId].payeeBondAmount);\n        payments[paymentId].payeeBondPaid = true;\n    }\n\n    function returnTokensToSender(uint64 paymentId, uint amount) external onlyPayee(paymentId) {\n        require(amount <= payments[paymentId].amount);\n        transferTokens(address(this), payments[paymentId].payer, amount, payments[paymentId].isEthPayment);\n        if (amount == payments[paymentId].amount) {\n            _deletePayment(paymentId);\n        }\n        else {\n            payments[paymentId].amount = payments[paymentId].amount.sub(amount);\n        }\n    }\n\n    function topUp(uint64 paymentId, uint amount) external payable {\n        transferTokens(msg.sender, address(this), amount, payments[paymentId].isEthPayment);\n        payments[paymentId].amount = payments[paymentId].amount.add(amount);\n    }\n\n    function releasePayment(uint64 paymentId, uint amount) external onlyPayer(paymentId) {\n        require(amount <= payments[paymentId].amount);\n        payments[paymentId].amount = payments[paymentId].amount.sub(amount);\n        transferTokens(address(this), payments[paymentId].payee, amount, payments[paymentId].isEthPayment);\n        if (payments[paymentId].amount == 0) {\n            _deletePayment(paymentId);\n        }\n    }\n\n    function scorchPayment(uint64 paymentId, uint256 amountToScorch) external onlyPayer(paymentId) {\n        payments[paymentId].amount = payments[paymentId].amount.sub(amountToScorch);\n        transferTokens(address(this), scorchAddress, amountToScorch, payments[paymentId].isEthPayment);\n        if (payments[paymentId].amount == 0) {\n            _deletePayment(paymentId);\n        }\n    }\n\n    function claimTimedOutPayment(uint64 paymentId) external onlyPayee(paymentId) {\n        require(now > payments[paymentId].payerInactionTimeout);\n        transferTokens(\n            address(this),\n            payments[paymentId].payee,\n            payments[paymentId].amount,\n            payments[paymentId].isEthPayment\n        );\n        _deletePayment(paymentId);\n    }\n\n    function getNumPayments() external view returns (uint length) {\n        return paymentIds.length;\n    }\n\n    function getPaymentsForAccount(address account) external view returns (uint64[], uint64[]) {\n        uint64[] memory outgoingIds = new uint64[](paymentIds.length);\n        uint64[] memory incomingIds = new uint64[](paymentIds.length);\n        uint outgoingReturnLength = 0;\n        uint incomingReturnLength = 0;\n\n        for (uint i=0; i < paymentIds.length; i = i.add(1)) {\n            if (payments[paymentIds[i]].payer == account) {\n                outgoingIds[outgoingReturnLength] = paymentIds[i];\n                outgoingReturnLength = outgoingReturnLength.add(1);\n            }\n            if (payments[paymentIds[i]].payee == account) {\n                incomingIds[incomingReturnLength] = paymentIds[i];\n                incomingReturnLength = incomingReturnLength.add(1);\n            }\n        }\n\n        uint64[] memory returnOutgoingIds = new uint64[](outgoingReturnLength);\n        uint64[] memory returnIncomingIds = new uint64[](incomingReturnLength);\n\n        for (uint j=0; j < outgoingReturnLength; j = j.add(1)) {\n            returnOutgoingIds[j] = outgoingIds[j];\n        }\n        for (uint k=0; k < incomingReturnLength; k = k.add(1)) {\n            returnIncomingIds[k] = incomingIds[k];\n        }\n        return (returnOutgoingIds, returnIncomingIds);\n    }\n\n    function extendInactionTimeout(uint64 paymentId) public onlyPayer(paymentId) {\n        payments[paymentId].payerInactionTimeout = now.add(5 weeks);\n    }\n\n    function transferTokens(address source, address dest, uint amount, bool isEthPayment) internal {\n        if (isEthPayment) {\n            if (dest == address(this)) {\n                require(msg.value == amount);\n            }\n            else {\n                dest.transfer(amount);\n            }\n        }\n        else {\n            transferDai(source, dest, amount);\n        }\n    }\n\n    function _deletePayment(uint64 paymentId) internal {\n        uint listIndex = payments[paymentId].listIndex;\n        paymentIds[listIndex] = paymentIds[paymentIds.length.sub(1)];\n        payments[paymentIds[listIndex]].listIndex = listIndex;\n        delete payments[paymentId];\n        paymentIds.length = paymentIds.length.sub(1);\n    }\n}\n",
  "sourcePath": "/home/mark/scorchable-payments/contracts/ScorchablePayments.sol",
  "compiler": {
    "name": "solc",
    "version": "0.4.24+commit.e67f0147.Emscripten.clang"
  },
  "schemaVersion": "2.0.1",
  "updatedAt": "2018-11-12T01:05:29.296Z"
}